{
  "contractName": "Blockproof",
  "abi": [
    {
      "inputs": [],
      "payable": true,
      "stateMutability": "payable",
      "type": "constructor"
    },
    {
      "payable": true,
      "stateMutability": "payable",
      "type": "fallback"
    },
    {
      "anonymous": false,
      "inputs": [
        {
          "indexed": false,
          "name": "_proofTimeStamp",
          "type": "uint256"
        }
      ],
      "name": "timestampNow",
      "type": "event"
    },
    {
      "anonymous": false,
      "inputs": [
        {
          "indexed": false,
          "name": "_proofId",
          "type": "uint256"
        },
        {
          "indexed": false,
          "name": "_proofCreator",
          "type": "address"
        },
        {
          "indexed": false,
          "name": "_proofTitle",
          "type": "string"
        },
        {
          "indexed": false,
          "name": "_proofIpfsHash",
          "type": "string"
        },
        {
          "indexed": false,
          "name": "_proofRemarks",
          "type": "string"
        },
        {
          "indexed": false,
          "name": "_proofTags",
          "type": "string"
        },
        {
          "indexed": false,
          "name": "_proofTimeStamp",
          "type": "uint256"
        }
      ],
      "name": "newProofCreated",
      "type": "event"
    },
    {
      "constant": false,
      "inputs": [],
      "name": "deposit",
      "outputs": [],
      "payable": true,
      "stateMutability": "payable",
      "type": "function"
    },
    {
      "constant": true,
      "inputs": [],
      "name": "getBalance",
      "outputs": [
        {
          "name": "",
          "type": "uint256"
        }
      ],
      "payable": false,
      "stateMutability": "view",
      "type": "function"
    },
    {
      "constant": false,
      "inputs": [],
      "name": "withdraw",
      "outputs": [],
      "payable": false,
      "stateMutability": "nonpayable",
      "type": "function"
    },
    {
      "constant": false,
      "inputs": [],
      "name": "kill",
      "outputs": [],
      "payable": false,
      "stateMutability": "nonpayable",
      "type": "function"
    },
    {
      "constant": false,
      "inputs": [],
      "name": "toggle_active",
      "outputs": [
        {
          "name": "",
          "type": "bool"
        }
      ],
      "payable": false,
      "stateMutability": "nonpayable",
      "type": "function"
    },
    {
      "constant": false,
      "inputs": [
        {
          "name": "_title",
          "type": "string"
        },
        {
          "name": "_ipfshash",
          "type": "string"
        },
        {
          "name": "_proofremarks",
          "type": "string"
        },
        {
          "name": "_prooftags",
          "type": "string"
        }
      ],
      "name": "createProof",
      "outputs": [],
      "payable": true,
      "stateMutability": "payable",
      "type": "function"
    },
    {
      "constant": true,
      "inputs": [
        {
          "name": "_proofId",
          "type": "uint256"
        }
      ],
      "name": "getDetailsByIndex",
      "outputs": [
        {
          "name": "",
          "type": "uint256"
        },
        {
          "name": "",
          "type": "address"
        },
        {
          "name": "",
          "type": "string"
        }
      ],
      "payable": false,
      "stateMutability": "view",
      "type": "function"
    },
    {
      "constant": false,
      "inputs": [],
      "name": "update",
      "outputs": [],
      "payable": true,
      "stateMutability": "payable",
      "type": "function"
    },
    {
      "constant": false,
      "inputs": [
        {
          "name": "myid",
          "type": "bytes32"
        },
        {
          "name": "result",
          "type": "string"
        }
      ],
      "name": "__callback",
      "outputs": [],
      "payable": false,
      "stateMutability": "nonpayable",
      "type": "function"
    },
    {
      "constant": false,
      "inputs": [
        {
          "name": "myid",
          "type": "bytes32"
        },
        {
          "name": "result",
          "type": "string"
        },
        {
          "name": "proof",
          "type": "bytes"
        }
      ],
      "name": "__callback",
      "outputs": [],
      "payable": false,
      "stateMutability": "nonpayable",
      "type": "function"
    }
  ],
  "bytecode": "0x608060405233600560006101000a81548173ffffffffffffffffffffffffffffffffffffffff021916908373ffffffffffffffffffffffffffffffffffffffff1602179055506000600660146101000a81548161ffff021916908361ffff1602179055506000600c60006101000a81548160ff021916908315150217905550736f485c8bf6fc43ea212e93bbf8ce046c7f1cb4756000806101000a81548173ffffffffffffffffffffffffffffffffffffffff021916908373ffffffffffffffffffffffffffffffffffffffff160217905550611e0a806100e16000396000f3006080604052600436106100a4576000357c0100000000000000000000000000000000000000000000000000000000900463ffffffff16806312065fe0146100a657806327dc297e146100d157806338bbfa50146101485780633afd1b67146102055780633ccfd60b1461023457806341c0e1b51461024b5780639626450c14610262578063a2e6204514610342578063c60e84481461034c578063d0e30db01461047a575b005b3480156100b257600080fd5b506100bb610484565b6040518082815260200191505060405180910390f35b3480156100dd57600080fd5b506101466004803603810190808035600019169060200190929190803590602001908201803590602001908080601f01602080910402602001604051908101604052809392919081815260200183838082843782019150505050505091929192905050506104a3565b005b34801561015457600080fd5b506102036004803603810190808035600019169060200190929190803590602001908201803590602001908080601f0160208091040260200160405190810160405280939291908181526020018383808284378201915050505050509192919290803590602001908201803590602001908080601f01602080910402602001604051908101604052809392919081815260200183838082843782019150505050505091929192905050506104fa565b005b34801561021157600080fd5b5061021a6104ff565b604051808215151515815260200191505060405180910390f35b34801561024057600080fd5b5061024961059c565b005b34801561025757600080fd5b50610260610658565b005b34801561026e57600080fd5b5061028d600480360381019080803590602001909291905050506106ef565b604051808481526020018373ffffffffffffffffffffffffffffffffffffffff1673ffffffffffffffffffffffffffffffffffffffff16815260200180602001828103825283818151815260200191508051906020019080838360005b838110156103055780820151818401526020810190506102ea565b50505050905090810190601f1680156103325780820380516001836020036101000a031916815260200191505b5094505050505060405180910390f35b61034a61089d565b005b610478600480360381019080803590602001908201803590602001908080601f0160208091040260200160405190810160405280939291908181526020018383808284378201915050505050509192919290803590602001908201803590602001908080601f0160208091040260200160405190810160405280939291908181526020018383808284378201915050505050509192919290803590602001908201803590602001908080601f0160208091040260200160405190810160405280939291908181526020018383808284378201915050505050509192919290803590602001908201803590602001908080601f0160208091040260200160405190810160405280939291908181526020018383808284378201915050505050509192919290505050610923565b005b610482610a50565b005b60003073ffffffffffffffffffffffffffffffffffffffff1631905090565b6104ac81610a52565b6007819055507f69ff3f7a7a0379ca14372a2c6d466ae45b610f9e68ae6a0bcdcf13cb068efb1b6007546040518082815260200191505060405180910390a16104f6600754610a66565b5050565b505050565b6000600560009054906101000a900473ffffffffffffffffffffffffffffffffffffffff1673ffffffffffffffffffffffffffffffffffffffff163373ffffffffffffffffffffffffffffffffffffffff1614151561055d57600080fd5b600c60009054906101000a900460ff1615600c60006101000a81548160ff021916908315150217905550600c60009054906101000a900460ff16905090565b600560009054906101000a900473ffffffffffffffffffffffffffffffffffffffff1673ffffffffffffffffffffffffffffffffffffffff163373ffffffffffffffffffffffffffffffffffffffff161415156105f857600080fd5b3373ffffffffffffffffffffffffffffffffffffffff166108fc3073ffffffffffffffffffffffffffffffffffffffff16319081150290604051600060405180830381858888f19350505050158015610655573d6000803e3d6000fd5b50565b600560009054906101000a900473ffffffffffffffffffffffffffffffffffffffff1673ffffffffffffffffffffffffffffffffffffffff163373ffffffffffffffffffffffffffffffffffffffff161415156106b457600080fd5b600560009054906101000a900473ffffffffffffffffffffffffffffffffffffffff1673ffffffffffffffffffffffffffffffffffffffff16ff5b60008060606106fc611c76565b600d6000868152602001908152602001600020608060405190810160405290816000820160009054906101000a900461ffff1661ffff1661ffff168152602001600182015481526020016002820160009054906101000a900473ffffffffffffffffffffffffffffffffffffffff1673ffffffffffffffffffffffffffffffffffffffff1673ffffffffffffffffffffffffffffffffffffffff168152602001600382018054600181600116156101000203166002900480601f0160208091040260200160405190810160405280929190818152602001828054600181600116156101000203166002900480156108345780601f1061080957610100808354040283529160200191610834565b820191906000526020600020905b81548152906001019060200180831161081757829003601f168201915b5050505050815250509050806040015173ffffffffffffffffffffffffffffffffffffffff163373ffffffffffffffffffffffffffffffffffffffff1614151561087d57600080fd5b806020015181604001518260600151809050935093509350509193909250565b600062030d40905061091f6040805190810160405280600c81526020017f576f6c6672616d416c70686100000000000000000000000000000000000000008152506040805190810160405280600d81526020017f74696d657374616d70206e6f77000000000000000000000000000000000000008152508362ffffff16610f0d565b5050565b600084511180156109365750600f845111155b151561093e57fe5b600083511180156109505750602e8351145b151561095857fe5b602882511115151561096657fe5b600a81511115151561097457fe5b6001600660148282829054906101000a900461ffff160192506101000a81548161ffff021916908361ffff16021790555083600890805190602001906109bb929190611cb9565b5033600660006101000a81548173ffffffffffffffffffffffffffffffffffffffff021916908373ffffffffffffffffffffffffffffffffffffffff1602179055508260099080519060200190610a13929190611cb9565b5081600a9080519060200190610a2a929190611cb9565b5080600b9080519060200190610a41929190611cb9565b50610a4a61089d565b50505050565b565b6000610a5f8260006114bd565b9050919050565b610a6e611c76565b608060405190810160405280600660149054906101000a900461ffff1661ffff168152602001838152602001600660009054906101000a900473ffffffffffffffffffffffffffffffffffffffff1673ffffffffffffffffffffffffffffffffffffffff16815260200160098054600181600116156101000203166002900480601f016020809104026020016040519081016040528092919081815260200182805460018160011615610100020316600290048015610b6e5780601f10610b4357610100808354040283529160200191610b6e565b820191906000526020600020905b815481529060010190602001808311610b5157829003601f168201915b5050505050815250905080600d6000600660149054906101000a900461ffff1661ffff16815260200190815260200160002060008201518160000160006101000a81548161ffff021916908361ffff1602179055506020820151816001015560408201518160020160006101000a81548173ffffffffffffffffffffffffffffffffffffffff021916908373ffffffffffffffffffffffffffffffffffffffff1602179055506060820151816003019080519060200190610c30929190611d39565b509050507ff8edb3d138ea6ab67e0c8d14c3a1586dc9a60dc2fe44495ee98ea2e4cf066aae600660149054906101000a900461ffff16600660009054906101000a900473ffffffffffffffffffffffffffffffffffffffff1660086009600a600b88604051808861ffff1681526020018773ffffffffffffffffffffffffffffffffffffffff1673ffffffffffffffffffffffffffffffffffffffff1681526020018060200180602001806020018060200186815260200185810385528a818154600181600116156101000203166002900481526020019150805460018160011615610100020316600290048015610d695780601f10610d3e57610100808354040283529160200191610d69565b820191906000526020600020905b815481529060010190602001808311610d4c57829003601f168201915b5050858103845289818154600181600116156101000203166002900481526020019150805460018160011615610100020316600290048015610dec5780601f10610dc157610100808354040283529160200191610dec565b820191906000526020600020905b815481529060010190602001808311610dcf57829003601f168201915b5050858103835288818154600181600116156101000203166002900481526020019150805460018160011615610100020316600290048015610e6f5780601f10610e4457610100808354040283529160200191610e6f565b820191906000526020600020905b815481529060010190602001808311610e5257829003601f168201915b5050858103825287818154600181600116156101000203166002900481526020019150805460018160011615610100020316600290048015610ef25780601f10610ec757610100808354040283529160200191610ef2565b820191906000526020600020905b815481529060010190602001808311610ed557829003601f168201915b50509b50505050505050505050505060405180910390a15050565b60008060008060009054906101000a900473ffffffffffffffffffffffffffffffffffffffff1673ffffffffffffffffffffffffffffffffffffffff161480610f7f57506000610f7d6000809054906101000a900473ffffffffffffffffffffffffffffffffffffffff166117b1565b145b15610f9057610f8e60006117bc565b505b6000809054906101000a900473ffffffffffffffffffffffffffffffffffffffff1673ffffffffffffffffffffffffffffffffffffffff166338cc48316040518163ffffffff167c0100000000000000000000000000000000000000000000000000000000028152600401602060405180830381600087803b15801561101557600080fd5b505af1158015611029573d6000803e3d6000fd5b505050506040513d602081101561103f57600080fd5b810190808051906020019092919050505073ffffffffffffffffffffffffffffffffffffffff16600160009054906101000a900473ffffffffffffffffffffffffffffffffffffffff1673ffffffffffffffffffffffffffffffffffffffff161415156111a7576000809054906101000a900473ffffffffffffffffffffffffffffffffffffffff1673ffffffffffffffffffffffffffffffffffffffff166338cc48316040518163ffffffff167c0100000000000000000000000000000000000000000000000000000000028152600401602060405180830381600087803b15801561112b57600080fd5b505af115801561113f573d6000803e3d6000fd5b505050506040513d602081101561115557600080fd5b8101908080519060200190929190505050600160006101000a81548173ffffffffffffffffffffffffffffffffffffffff021916908373ffffffffffffffffffffffffffffffffffffffff1602179055505b600160009054906101000a900473ffffffffffffffffffffffffffffffffffffffff1673ffffffffffffffffffffffffffffffffffffffff16632ef3accc86856040518363ffffffff167c01000000000000000000000000000000000000000000000000000000000281526004018080602001838152602001828103825284818151815260200191508051906020019080838360005b8381101561125857808201518184015260208101905061123d565b50505050905090810190601f1680156112855780820380516001836020036101000a031916815260200191505b509350505050602060405180830381600087803b1580156112a557600080fd5b505af11580156112b9573d6000803e3d6000fd5b505050506040513d60208110156112cf57600080fd5b81019080805190602001909291905050509050823a02670de0b6b3a76400000181111561130257600060010291506114b5565b600160009054906101000a900473ffffffffffffffffffffffffffffffffffffffff1673ffffffffffffffffffffffffffffffffffffffff1663c51be90f8260008888886040518663ffffffff167c0100000000000000000000000000000000000000000000000000000000028152600401808581526020018060200180602001848152602001838103835286818151815260200191508051906020019080838360005b838110156113c15780820151818401526020810190506113a6565b50505050905090810190601f1680156113ee5780820380516001836020036101000a031916815260200191505b50838103825285818151815260200191508051906020019080838360005b8381101561142757808201518184015260208101905061140c565b50505050905090810190601f1680156114545780820380516001836020036101000a031916815260200191505b5096505050505050506020604051808303818588803b15801561147657600080fd5b505af115801561148a573d6000803e3d6000fd5b50505050506040513d60208110156114a157600080fd5b810190808051906020019092919050505091505b509392505050565b6000606060008060008693506000925060009150600090505b83518110156117925760307f010000000000000000000000000000000000000000000000000000000000000002848281518110151561151157fe5b9060200101517f010000000000000000000000000000000000000000000000000000000000000090047f0100000000000000000000000000000000000000000000000000000000000000027effffffffffffffffffffffffffffffffffffffffffffffffffffffffffffff191610158015611629575060397f01000000000000000000000000000000000000000000000000000000000000000284828151811015156115b957fe5b9060200101517f010000000000000000000000000000000000000000000000000000000000000090047f0100000000000000000000000000000000000000000000000000000000000000027effffffffffffffffffffffffffffffffffffffffffffffffffffffffffffff191611155b156116da57811561164c57600086141561164257611792565b8580600190039650505b600a830292506030848281518110151561166257fe5b9060200101517f010000000000000000000000000000000000000000000000000000000000000090047f0100000000000000000000000000000000000000000000000000000000000000027f010000000000000000000000000000000000000000000000000000000000000090040383019250611785565b602e7f010000000000000000000000000000000000000000000000000000000000000002848281518110151561170c57fe5b9060200101517f010000000000000000000000000000000000000000000000000000000000000090047f0100000000000000000000000000000000000000000000000000000000000000027effffffffffffffffffffffffffffffffffffffffffffffffffffffffffffff1916141561178457600191505b5b80806001019150506114d6565b60008611156117a45785600a0a830292505b8294505050505092915050565b6000813b9050919050565b60006117c66117cd565b9050919050565b6000806117ed731d3b2638a7cc9f2cb3d298a3da7a90b67e5506ed6117b1565b111561188e57731d3b2638a7cc9f2cb3d298a3da7a90b67e5506ed6000806101000a81548173ffffffffffffffffffffffffffffffffffffffff021916908373ffffffffffffffffffffffffffffffffffffffff1602179055506118856040805190810160405280600b81526020017f6574685f6d61696e6e6574000000000000000000000000000000000000000000815250611c5c565b60019050611c59565b60006118ad73c03a2615d5efaf5f49f60b7bb6583eaec212fdf16117b1565b111561194e5773c03a2615d5efaf5f49f60b7bb6583eaec212fdf16000806101000a81548173ffffffffffffffffffffffffffffffffffffffff021916908373ffffffffffffffffffffffffffffffffffffffff1602179055506119456040805190810160405280600c81526020017f6574685f726f707374656e330000000000000000000000000000000000000000815250611c5c565b60019050611c59565b600061196d73b7a07bcf2ba2f2703b24c0691b5278999c59ac7e6117b1565b1115611a0e5773b7a07bcf2ba2f2703b24c0691b5278999c59ac7e6000806101000a81548173ffffffffffffffffffffffffffffffffffffffff021916908373ffffffffffffffffffffffffffffffffffffffff160217905550611a056040805190810160405280600981526020017f6574685f6b6f76616e0000000000000000000000000000000000000000000000815250611c5c565b60019050611c59565b6000611a2d73146500cfd35b22e4a392fe0adc06de1a1368ed486117b1565b1115611ace5773146500cfd35b22e4a392fe0adc06de1a1368ed486000806101000a81548173ffffffffffffffffffffffffffffffffffffffff021916908373ffffffffffffffffffffffffffffffffffffffff160217905550611ac56040805190810160405280600b81526020017f6574685f72696e6b656279000000000000000000000000000000000000000000815250611c5c565b60019050611c59565b6000611aed736f485c8bf6fc43ea212e93bbf8ce046c7f1cb4756117b1565b1115611b5057736f485c8bf6fc43ea212e93bbf8ce046c7f1cb4756000806101000a81548173ffffffffffffffffffffffffffffffffffffffff021916908373ffffffffffffffffffffffffffffffffffffffff16021790555060019050611c59565b6000611b6f7320e12a1f859b3feae5fb2a0a32c18f5a65555bbf6117b1565b1115611bd2577320e12a1f859b3feae5fb2a0a32c18f5a65555bbf6000806101000a81548173ffffffffffffffffffffffffffffffffffffffff021916908373ffffffffffffffffffffffffffffffffffffffff16021790555060019050611c59565b6000611bf17351efaf4c8b3c9afbd5ab9f4bbc82784ab6ef8faa6117b1565b1115611c54577351efaf4c8b3c9afbd5ab9f4bbc82784ab6ef8faa6000806101000a81548173ffffffffffffffffffffffffffffffffffffffff021916908373ffffffffffffffffffffffffffffffffffffffff16021790555060019050611c59565b600090505b90565b8060029080519060200190611c72929190611cb9565b5050565b608060405190810160405280600061ffff16815260200160008152602001600073ffffffffffffffffffffffffffffffffffffffff168152602001606081525090565b828054600181600116156101000203166002900490600052602060002090601f016020900481019282601f10611cfa57805160ff1916838001178555611d28565b82800160010185558215611d28579182015b82811115611d27578251825591602001919060010190611d0c565b5b509050611d359190611db9565b5090565b828054600181600116156101000203166002900490600052602060002090601f016020900481019282601f10611d7a57805160ff1916838001178555611da8565b82800160010185558215611da8579182015b82811115611da7578251825591602001919060010190611d8c565b5b509050611db59190611db9565b5090565b611ddb91905b80821115611dd7576000816000905550600101611dbf565b5090565b905600a165627a7a72305820e67eff474c3445353335568e931531b7e7a168d9f65a28b5c32d8c468f11f5030029",
  "source": "pragma solidity ^0.4.20;\nimport \"installed_contracts/oraclize-api/contracts/usingOraclize.sol\";\n\n/// @title A contract to save time-stamped hash of images and documents on IPFS to prove existence of an entity\n/// at that point in time\n/// @author Tanmay Bhardwaj\n/// @notice This contract can only be used to create proof of existence of an entity and may not be suitable to\n/// prove its legal ownership \n/// @dev All function calls are currently implement without side effects\n\ncontract Blockproof  is usingOraclize {\n    /*=================================\n    =            MODIFIERS            =\n    =================================*/\n    modifier onlyOwner() {\n        require(msg.sender == contractOwner);\n        _;\n    }\n\n    modifier stopInEmergency {\n        if (!stopped) _; \n    }\n    \n    modifier onlyInEmergency { \n        if (stopped) _; \n    }\n\n    /*=================================\n    =            CONFIGURABLES            =\n    ===================================*/\n    address contractOwner;\n    address proofCreator;  \n    uint16  proofId;\n    uint    proofTimeStamp;\n    string  proofTitle;  \n    string  proofIpfsHash;\n    string  proofRemarks;\n    string  proofTags; \n    bool    private  stopped;\n    uint    constant proofTitleLength       = 15;\n    uint    constant proofIpfsHashLength    = 46;\n    uint    constant proofRemarksLength     = 40;\n    uint    constant proofTagsLength        = 10;\n    \n    /*=================================\n    =            EVENTS               =\n    ==================================*/\n    \n    event timestampNow(uint _proofTimeStamp);\n    event newProofCreated(uint _proofId, address _proofCreator, string _proofTitle, \n        string _proofIpfsHash, string _proofRemarks, string _proofTags, uint _proofTimeStamp);    \n\n    /*================================\n    =            DATASETS            =\n    ==================================*/\n/// @notice mapping of document hash and user address\n    mapping (uint => Proof) idToProof;\n\n    // Struct to store document details\n    struct Proof {\n        uint16   id;\n        uint     timestamp;\n        address  creator; \n        string   ipfshash;          \n    }\n    \n    /*================================\n    =            FUNCTIONS           =\n    ==================================*/\n/// @notice This is the constructor function\n/// @dev \n    function Blockproof () public payable {\n        contractOwner = msg.sender;\n        proofId = 0;\n        stopped = false;\n        OAR = OraclizeAddrResolverI(0x6f485C8BF6fc43eA212E93BBF8ce046C7f1cb475);\n    }\n    \n/// @notice This is the fallback function in case someone sends ether to the contract\n    function() public payable {}\n    \n/// @notice This function is to send ether to this contract    \n    function deposit() payable public {\n        // nothing to do!\n    }\n\n/// @notice This function is to get ether balance of this contract    \n    function getBalance() public view returns (uint256) {\n        return address(this).balance;\n    }\n\n/// @notice This function is used to withdraw balance of this contract, it can be invoked only by contract owner\n    function withdraw() public onlyOwner {\n            msg.sender.transfer(address(this).balance);\n        }\n        \n/// @notice This function will destroy this contract and can be invoked only by contract owner \n    function kill() public onlyOwner {\n        selfdestruct(contractOwner);\n   }\n\n/// @notice This function will work as circuit breaker to enable or disable a function is case of any \n/// any emergency. It can be invoked only by contract owner.\n/// @return  Bool status of emergency circuit breaker\n    function toggle_active() onlyOwner public returns(bool){\n      stopped = !stopped;\n      return stopped;\n    }\n   \n/// @notice This function received ipfs hash and title of the document from front end and calls another function \n/// to Oraclize 'WolframAlpha' Service to get current timestamp\n/// @dev It is necessary to pass document hash and ipfs hash to this function    \n/// @param  _title : title of the document sent from front end   \n/// @param _ipfshash : ipfs hash of the document sent from front end\n/// @param _proofremarks : remarks given to the document sent from front end\n/// @param _prooftags : tags given to the document sent from front end\n/// @return  None return parameters\n    function createProof (string _title, string _ipfshash, string _proofremarks, string _prooftags)\n        payable public {        \n    assert ((bytes(_title).length > 0) && (bytes(_title).length <= proofTitleLength));\n    assert ((bytes(_ipfshash).length > 0) && (bytes(_ipfshash).length == proofIpfsHashLength));\n    assert (bytes(_proofremarks).length <= proofRemarksLength);\n    assert (bytes(_prooftags).length <= proofTagsLength); \n    proofId += 1;\n    proofTitle = _title;\n    proofCreator = msg.sender;\n    proofIpfsHash = _ipfshash;\n    proofRemarks = _proofremarks; \n    proofTags = _prooftags; \n    \n/// Call Oraclize to get current timestamp\n    update();\n    }\n\n/// @notice This function returns details of the proof saved. For a given proof ID, it will return data only if the sender is \n/// creator of the proof\n/// @param _proofId : Unique Id associated with the proof\n/// @return existingProof.timestamp : Timestamp \n/// @return existingProof.creator : Address of the creator\n/// @return existingProof.ipfshash : Hash of the document\n    function getDetailsByIndex (uint _proofId) view public \n        returns (uint, address, string)\n    {\n        Proof memory existingProof = idToProof[_proofId];\n        if (msg.sender != existingProof.creator)\n         {throw;}\n        else {\n        return \n        (existingProof.timestamp, existingProof.creator, existingProof.ipfshash); \n        }\n    }\n    \n/// @notice This function will send Oraclize request to get current time stamp \n    function update() payable {\n        var gasLimit = 200000;\n        oraclize_query(\"WolframAlpha\", \"timestamp now\", gasLimit);\n    }\n    \n/// @notice This function is callback from Oraclize and returns current timestamp. From this function, we call another function which \n/// will execute logic to store the information related to the proof\n/// @return myid : unique id of the Oraclize transaction\n/// @return result : current timestamp\n    function __callback(bytes32 myid, string result) {\n        proofTimeStamp = parseInt(result);\n        timestampNow(proofTimeStamp);\n        _saveTheProof(proofTimeStamp);\n    }\n    \n/// @notice This function will store proof related details in the 'Proof' mapping \n/// @param _proofTimeStamp : Timestamp \n    function _saveTheProof(uint _proofTimeStamp) private  {    \n    Proof memory newProof = Proof(proofId, _proofTimeStamp, proofCreator, proofIpfsHash); \n    idToProof[proofId]=newProof;\n    newProofCreated(proofId, proofCreator, proofTitle, proofIpfsHash, proofRemarks, proofTags, _proofTimeStamp);\n    }     \n}\n",
  "sourcePath": "D:\\PERSONAL\\CONSENSYS_2018\\Final Project Copy - 27 August 2018 843PM Upload\\Proof-of-Existence-dApp-master\\contracts\\Blockproof.sol",
  "compiler": {
    "name": "solc",
    "version": "0.4.24+commit.e67f0147.Emscripten.clang"
  },
  "schemaVersion": "2.0.1",
  "updatedAt": "2018-08-27T17:21:13.968Z"
}